S01300007265666C6F775F6F76656E2E737265636B
S113000019C0C4C10DC231C030C02FC02EC02DC014
S11300102CC02BC02AC029C028C027C026C025C098
S113002024C023C022C021C020C01FC01EC01DC0C8
S11300301CC01BC011241FBECFEFD4E0DEBFCDBF58
S113004011E0A0E0B1E0E8E9F5E002C005900D920E
S1130050AA32B107D9F721E0AAE2B1E001C01D92AA
S1130060A733B207E1F76DD195C2CACF80FF02C0B2
S1130070439A01C0439881FF02C0429A01C042984A
S113008082FF02C0419A01C0419883FF02C0409A96
S1130090089540980895CF93C82F289A82958F7019
S11300A0E5DF2898289A8C2FE1DF289885E88A953F
S11300B0F1F70000CF9108955F98EDCF5F9AEBCFF1
S11300C0CF93DF93EC018991882311F0F7DFFBCF05
S11300D0DF91CF91089590E4699F800D1124806889
S11300E0EBCF81E0E9DF8FE99FE00197F1F700C0F2
S11300F000000895CF933B9A3A9A399A389A209AF5
S1130100579A8FE295E70197F1F700C000005F98D6
S11301102898C3E0289A83E0A9DF28988FE097E223
S11301200197F1F700C00000C150A1F7289A82E0BE
S11301309DDF28988FEC97E00197F1F700C000004D
S113014088E2BADF88E0B8DF81E0B6DF8FE99FE0BC
S11301500197F1F700C0000086E0AEDF8CE0CF919C
S1130160ABCF48E050E060E070E08EE291E0F1C196
S113017048E050E060E070E08EE291E0DAD1EEE237
S1130180F1E080819181A281B3810196A11DB11D0D
S113019080839183A283B383E4CF8FEF87B983EE07
S11301A08AB98FEE84B918B81BB884E085B908956C
S11301B083EA84BD81E085BD17BC18BC08958AE03C
S11301C08093690083E08DBB0895882319F093EA36
S11301D094BD01C014BC88BD809332010895CF93AF
S11301E0DF93CDB7DEB761970FB6F894DEBF0FBECD
S11301F0CDBF4AE0BE016F5F7F4F68D1CE0101964B
S11302005FDF61960FB6F894DEBF0FBECDBFDF91FE
S1130210CF91089588EC80937C0010927B0086EE49
S113022080937A0080917A0084FFFCCF0895209116
S1130230780030917900EEE2F1E04681429FC001FE
S1130240439F900D11246AE070E02CD18781860FC2
S11302500895CF93DF932FEF89E698E121508040F2
S11302609040E1F700C0000083DF97DFA1DFD2DF19
S1130270DEDF84E58CBDCEE2D1E08C81A6DF8D810A
S113028087BD38DF2EDF80E091E01ADF61E080E097
S113029022DF8EE091E014DF92DF2FEF8DE399E40B
S11302A0215080409040E1F700C00000DF91CF91E1
S11302B018CF8EBD0DB407FEFDCF8EB50895CF9334
S11302C0DF932A9822E02A95F1F700C080E0F1DF5D
S11302D0C82FD0E0DC2FCC2780E0EBDF32E03A956A
S11302E0F1F700C02A9A9E01282BC901DF91CF9112
S11302F00895CF93DF9382FF05C08FE191E0DF91F2
S1130300CF91DECEEC0183E0D695C7958A95E1F7CF
S1130310CE019F70969587959695879560DF8EE2BE
S1130320CDDEC370DD2789E1282F2C9FC0012D9FCE
S1130330900D112454DF8FEDC1DE83E4DF91CF9162
S1130340BDCE87DFCEDE7894BADF23E0969587951D
S11303502A95E1F79F708C37910510F0589801C0E9
S1130360589A60E080E0B7DEAADFC3DF61E080E096
S1130370B2DE5DDF90E033DF2FEF81EE94E02150B9
S113038080409040E1F700C00000DECF1F920F9242
S11303900FB60F9211242F933F934F935F936F9354
S11303A07F938F939F93AF93BF93EF93FF9380912A
S11303B02A0190E001968170992780932A01809107
S11303C02A01882371F08091320180932B0161E02E
S11303D080E081DE8EE772DE61E085E07CDE80E233
S11303E00DC08091330180932B0161E080E073DEC6
S11303F080E264DE61E085E06EDE8EE75FDEFF9121
S1130400EF91BF91AF919F918F917F916F915F9188
S11304104F913F912F910F900FBE0F901F90189501
S11304201F920F920FB60F9211242F933F934F9365
S11304305F936F937F938F939F93AF93BF93EF9348
S1130440FF934C9B08C080912B01882369F0809115
S11304502B01815007C080912B018F3F29F080919F
S11304602B018F5F80932B0180912A01882321F037
S113047080912B01AADE05C080912B0187BD80935A
S11304803301FF91EF91BF91AF919F918F917F9134
S11304906F915F914F913F912F910F900FBE0F90ED
S11304A01F901895AA1BBB1B51E107C0AA1FBB1FB5
S11304B0A617B70710F0A61BB70B881F991F5A95EC
S11304C0A9F780959095BC01CD010895BB274A30CA
S11304D031F4992322F4BDE2909581959F4F01C098
S11304E0BB27FB015527AA27880F991FAA1FA4170A
S11304F010F0A41B83955051B9F7A05DAA3308F0FE
S1130500A95DA193009779F7B111B1931192CB0131
S113051000C0DC01FC01672F71917723E1F732976A
S113052004C07C916D9370836291AE17BF07C8F3CA
S11305300895DC01CB01FC01F999FECF06C0F2BDA0
S1130540E1BDF89A319600B40D9241505040B8F78D
S11305500895DC01A40FB51F4150504040F0CB0179
S1130560840F951F2E9105D041505040D8F708951F
S1130570262FF999FECF92BD81BDF89A019700B458
S1130580021639F01FBA20BD0FB6F894FA9AF99AF8
S10B05900FBE0895F894FFCF9B
S113059820205265666C6F77206F76656E00452E55
S11305A85654302E504C2032303135207632004E9D
S10D05B84F2050524F42452000002E
S9030000FC
