S01300007265666C6F775F6F76656E2E737265636B
S113000019C016C260C231C030C02FC02EC02DC06E
S11300102CC02BC02AC029C028C027C026C025C098
S113002024C023C022C021C020C01FC01EC01DC0C8
S11300301CC01BC011241FBECFEFD4E0DEBFCDBF58
S113004011E0A0E0B1E0E6E5F6E002C005900D9213
S1130050AA33B107D9F721E0AAE3B1E001C01D92A8
S1130060A634B207E1F7AED1F4C2CACF80FF02C012
S1130070439A01C0439881FF02C0429A01C042984A
S113008082FF02C0419A01C0419883FF02C0409A96
S1130090089540980895CF93C82F289A82958F7019
S11300A0E5DF2898289A8C2FE1DF289885E88A953F
S11300B0F1F70000CF9108955F98EDCF5F9AEBCFF1
S11300C0CF93DF93EC018991882311F0F7DFFBCF05
S11300D0DF91CF91089590E4699F800D1124806889
S11300E0EBCF81E0E9DF8FE99FE00197F1F700C0F2
S11300F000000895CF933B9A3A9A399A389A209AF5
S1130100579A8FE295E70197F1F700C000005F98D6
S11301102898C3E0289A83E0A9DF28988FE097E223
S11301200197F1F700C00000C150A1F7289A82E0BE
S11301309DDF28988FEC97E00197F1F700C000004D
S113014088E2BADF88E0B8DF81E0B6DF8FE99FE0BC
S11301500197F1F700C0000086E0AEDF8CE0CF919C
S1130160ABCF48E050E060E070E08DE391E050C236
S1130170CF93DF9348E050E060E070E08DE391E0DE
S113018037D2CDE3D1E088819981AA81BB810196E0
S1130190A11DB11D88839983AA83BB83E2DF8D816E
S11301A080933A01DF91CF9108958FEF87B983EE61
S11301B08AB98FEE84B918B81BB884E085B908955C
S11301C083EA84BD81E085BD17BC18BC08958AE02C
S11301D08093690083E08DBB0895882319F093EA26
S11301E094BD01C014BC88BD809341010895CF9390
S11301F0DF932AE0622FA9D1C92FA7D1D92FA5D186
S113020080E3890F5BDF80E38D0F58DF80E38C0F81
S1130210DF91CF9153CF0F931F93CF93DF9300D0F0
S113022000D000D0CDB7DEB78C014AE0BE016F5FCD
S11302307F4FABD10A30110510F480E33FDFCE01CC
S113024001963EDF26960FB6F894DEBF0FBECDBFF3
S1130250DF91CF911F910F91089588EC80937C00DA
S113026010927B0086EE80937A0080917A0084FF5E
S1130270FCCF08952091780030917900EDE3F1E00E
S11302804681429FC001439F900D11246AE070E0B3
S113029068D18781860F0895CF93DF932FEF89E686
S11302A098E1215080409040E1F700C0000060DFF9
S11302B07CDF86DFD2DFDEDF84E58CBDCDE3D1E0F9
S11302C08C818BDF8D8187BD82DF14DF0ADF81E0C3
S11302D091E0F6DE61E080E0FEDE8FE091E0F0DEAA
S11302E02FEF8DE399E4215080409040E1F700C066
S11302F00000F7DE80E291E0E3DE61E080E0EBDE27
S11303008881998188DF61E085E0E5DE8C8190E079
S113031082DF61E08AE0DFDE8D8190E07CDF2FEF19
S11303208DE399E4215080409040E1F700C0000043
S1130330DF91CF91D6CE8EBD0DB407FEFDCF8EB525
S11303400895CF93DF932A9822E02A95F1F700C00D
S113035080E0F1DFC82FD0E0DC2FCC2780E0EBDF9A
S113036032E03A95F1F700C02A9A9E01282BC90180
S1130370DF91CF910895CF93DF9382FF05C08FE281
S113038091E0DF91CF919CCEEC0183E0D695C795A7
S11303908A95E1F7CE01969587959695879527DFFF
S11303A08EE28CDEC370DD2789E1282F2C9FC001EB
S11303B02D9F900D11242FDF8FED80DE83E4DF91DC
S11303C0CF917CCE69DF8DDE789460E08CE083DEB3
S11303D08EE774DEB6DF23E0969587952A95E1F7DC
S11303E09F708C37910510F0589801C0589A60E0BE
S11303F080E071DEA6DFBFDF61E080E06CDE3ADF23
S113040090E009DF60E08DE066DE80914101EFDE7F
S113041061E08DE060DE80914201E9DE2FEF81EE44
S113042094E0215080409040E1F700C00000D2CF1A
S11304301F920F920FB60F9211242F933F934F9355
S11304405F936F937F938F939F93AF93BF93EF9338
S1130450FF938091000190E0019681709927809329
S1130460000180910001882371F080914101809303
S11304703A0160E08CE02FDE8EE720DE61E08CE064
S11304802ADE80E20DC08091420180933A0160E04F
S11304908CE021DE80E212DE61E08CE01CDE8EE77F
S11304A00DDE5FDEFF91EF91BF91AF919F918F9130
S11304B07F916F915F914F913F912F910F900FBE5C
S11304C00F901F9018951F920F920FB60F92112440
S11304D02F933F934F935F936F937F938F939F9348
S11304E0AF93BF93EF93FF934C9B08C080913A0165
S11304F0882369F080913A01815007C080913A01C4
S11305008F3F29F080913A018F5F80933A01809167
S11305100001882321F080913A015FDE05C08091BB
S11305203A0187BD80934201FF91EF91BF91AF9152
S11305309F918F917F916F915F914F913F912F91F7
S11305400F900FBE0F901F901895991B79E004C06F
S1130550991F961708F0961B881F7A95C9F78095FE
S11305600895AA1BBB1B51E107C0AA1FBB1FA617F6
S1130570B70710F0A61BB70B881F991F5A95A9F748
S113058080959095BC01CD010895BB274A3031F484
S1130590992322F4BDE2909581959F4F01C0BB271A
S11305A0FB015527AA27880F991FAA1FA41710F02B
S11305B0A41B83955051B9F7A05DAA3308F0A95D37
S11305C0A193009779F7B111B1931192CB0100C0B7
S11305D0DC01FC01672F71917723E1F7329704C0A6
S11305E07C916D9370836291AE17BF07C8F3089531
S11305F0DC01CB01FC01F999FECF06C0F2BDE1BDDF
S1130600F89A319600B40D9241505040B8F70895CD
S1130610DC01A40FB51F4150504040F0CB01840FC2
S1130620951F2E9105D041505040D8F70895262F9C
S1130630F999FECF92BD81BDF89A019700B40216D4
S113064039F01FBA20BD0FB6F894FA9AF99A0FBE82
S10906500895F894FFCFA9
S11306560120205265666C6F77206F76656E0045C3
S11306662E5654302E504C20323031352076300000
S1130676506F773A2042636C3A20436F6E3A004ECD
S10D06864F2050524F42452000005F
S9030000FC
