:1000000019C039C286C231C030C02FC02EC02DC029
:100010002CC02BC02AC029C028C027C026C025C09C
:1000200024C023C022C021C020C01FC01EC01DC0CC
:100030001CC01BC011241FBECFEFD4E0DEBFCDBF5C
:1000400011E0A0E0B1E0E0EAF6E002C005900D9218
:10005000AA33B107D9F721E0AAE3B1E001C01D92AC
:10006000A734B207E1F7CED119C3CACF80FF02C0CF
:10007000439A01C0439881FF02C0429A01C042984E
:1000800082FF02C0419A01C0419883FF02C0409A9A
:10009000089540980895CF93C82F289A82958F701D
:1000A000E5DF2898289A8C2FE1DF289885E88A9543
:1000B000F1F70000CF9108955F98EDCF5F9AEBCFF5
:1000C000CF93DF93EC018991882311F0F7DFFBCF09
:1000D000DF91CF91089590E4699F800D112480688D
:1000E000EBCF81E0E9DF8FE99FE00197F1F700C0F6
:1000F00000000895CF933B9A3A9A399A389A209AF9
:10010000579A8FE295E70197F1F700C000005F98DA
:100110002898C3E0289A83E0A9DF28988FE097E227
:100120000197F1F700C00000C150A1F7289A82E0C2
:100130009DDF28988FEC97E00197F1F700C0000051
:1001400088E2BADF88E0B8DF81E0B6DF8FE99FE0C0
:100150000197F1F700C0000086E0AEDF8CE0CF91A0
:10016000ABCF49E050E060E070E08DE391E075C214
:10017000CF93DF9349E050E060E070E08DE391E0E1
:100180005CD2CDE3D1E088819981AA81BB810196BF
:10019000A11DB11D88839983AA83BB83E2DF888573
:1001A00080933A01DF91CF9108958FEF87B983EE65
:1001B0008AB98FEE84B918B81BB884E085B9089560
:1001C00083EA84BD81E085BD17BC18BC80E48093C0
:1001D000800088E08093810080EA9FE0909389000E
:1001E0008093880008958AE08093690083E08DBB46
:1001F0000895882319F093EA94BD01C014BC88BD0A
:1002000080934101089529E020938100009741F0F7
:10021000EFECF7E03197F1F700C000000197F6CF5F
:1002200088E0809381000895CF93DF932AE0622FC6
:10023000B1D1C92FAFD1D92FADD180E3890F3EDF26
:1002400080E38D0F3BDF80E38C0FDF91CF9136CFC2
:100250000F931F93CF93DF9300D000D000D0CDB782
:10026000DEB78C014AE0BE016F5F7F4FB3D10A3029
:10027000110510F480E322DFCE01019621DF2696DE
:100280000FB6F894DEBF0FBECDBFDF91CF911F91A7
:100290000F91089588EC80937C0010927B0086EE8D
:1002A00080937A0080917A0084FFFCCF089520919A
:1002B000780030917900EDE3F1E04681429FC00182
:1002C000439F900D11246AE070E070D18781860F02
:1002D0000895CF93DF932FEF89E698E12150804076
:1002E0009040E1F700C0000043DF5FDF69DFD2DF4D
:1002F000DEDF84E58CBDCDE3D1E08C817ADF8D81BA
:1003000087BD71DF88EC90E07EDFF4DEEADE81E01D
:1003100091E0D6DE61E080E0DEDE8FE091E0D0DECD
:100320002FEF8DE399E4215080409040E1F700C029
:100330000000D7DE80E291E0C3DE61E080E0CBDE4A
:100340008881998185DF61E085E0C5DE8C8190E060
:100350007FDF61E08AE0BFDE8D8190E079DF2FEF03
:100360008DE399E4215080409040E1F700C0000007
:10037000DF91CF91B6CE8EBD0DB407FEFDCF8EB509
:100380000895CF93DF932A9822E02A95F1F700C0D1
:1003900080E0F1DFC82FD0E0DC2FCC2780E0EBDF5E
:1003A00032E03A95F1F700C02A9A9E01282BC90144
:1003B000DF91CF910895CF93DF9382FF05C08FE245
:1003C00091E0DF91CF917CCEEC0183E0D695C7958B
:1003D0008A95E1F7CE01969587959695879524DFC6
:1003E0008EE26CDEC370DD2789E1282F2C9FC001CF
:1003F0002D9F900D11242CDF8FED60DE83E4DF91C3
:10040000CF915CCE66DF6DDE789460E08CE063DED9
:100410008EE754DEB6DF2091450135E0969587954D
:100420003A95E1F7937030E08217930710F4589AE9
:1004300001C0589860E080E04EDEA3DFBCDF61E0E1
:1004400080E049DE34DF90E003DF60E08DE043DEF2
:1004500080914101E9DE61E08DE03DDE8091450162
:10046000E3DE2FEF81EE94E0215080409040E1F7F1
:1004700000C00000CFCF1F920F920FB60F92112431
:100480002F933F934F935F936F937F938F939F939C
:10049000AF93BF93EF93FF938091000190E001969B
:1004A000817099278093000180910001882371F069
:1004B0008091410180933A0160E08CE00CDE8EE790
:1004C000FDDD61E08CE007DE80E20DC0809145013A
:1004D00080933A0160E08CE0FEDD80E2EFDD61E0D8
:1004E0008CE0F9DD8EE7EADD3CDE84E190E08BDE36
:1004F000FF91EF91BF91AF919F918F917F916F91FC
:100500005F914F913F912F910F900FBE0F901F90D1
:1005100018951F920F920FB60F9211242F933F93AD
:100520004F935F936F937F938F939F93AF93BF93FB
:10053000EF93FF934C9B08C080913A01882369F0A8
:1005400080913A01815007C080913A018F3F29F094
:1005500080913A018F5F80933A0180910001882356
:1005600021F080913A0145DE04C080913A018093E8
:100570004501FF91EF91BF91AF919F918F917F9135
:100580006F915F914F913F912F910F900FBE0F9000
:100590001F901895991B79E004C0991F961708F0D1
:1005A000961B881F7A95C9F780950895AA1BBB1BD7
:1005B00051E107C0AA1FBB1FA617B70710F0A61B63
:1005C000B70B881F991F5A95A9F780959095BC0184
:1005D000CD010895BB274A3031F4992322F4BDE2BE
:1005E000909581959F4F01C0BB27FB015527AA27F6
:1005F000880F991FAA1FA41710F0A41B83955051B0
:10060000B9F7A05DAA3308F0A95DA193009779F727
:10061000B111B1931192CB0100C0DC01FC01672F35
:1006200071917723E1F7329704C07C916D937083C9
:100630006291AE17BF07C8F30895DC01CB01FC013E
:10064000F999FECF06C0F2BDE1BDF89A319600B42B
:100650000D9241505040B8F70895DC01A40FB51F2A
:100660004150504040F0CB01840F951F2E9105D092
:1006700041505040D8F70895262FF999FECF92BDEA
:1006800081BDF89A019700B4021639F01FBA20BD57
:100690000FB6F894FA9AF99A0FBE0895F894FFCF1E
:1006A0000120205265666C6F77206F76656E00457D
:1006B0002E5654302E504C203230313520763000BA
:1006C000506F773A2042636C3A20436F6E3A004E87
:0A06D0004F2050524F424520000019
:00000001FF
