S01300007265666C6F775F6F76656E2E737265636B
S113000019C0EBC135C231C030C02FC02EC02DC0C5
S11300102CC02BC02AC029C028C027C026C025C098
S113002024C023C022C021C020C01FC01EC01DC0C8
S11300301CC01BC011241FBECFEFD4E0DEBFCDBF58
S113004011E0A0E0B1E0E8EEF5E002C005900D9209
S1130050A833B107D9F721E0A8E3B1E001C01D92AC
S1130060A534B207E1F794D1BDC2CACF80FF02C064
S1130070439A01C0439881FF02C0429A01C042984A
S113008082FF02C0419A01C0419883FF02C0409A96
S1130090089540980895CF93C82F289A82958F7019
S11300A0E5DF2898289A8C2FE1DF289885E88A953F
S11300B0F1F70000CF9108955F98EDCF5F9AEBCFF1
S11300C0CF93DF93EC018991882311F0F7DFFBCF05
S11300D0DF91CF91089590E4699F800D1124806889
S11300E0EBCF81E0E9DF8FE99FE00197F1F700C0F2
S11300F000000895CF933B9A3A9A399A389A209AF5
S1130100579A8FE295E70197F1F700C000005F98D6
S11301102898C3E0289A83E0A9DF28988FE097E223
S11301200197F1F700C00000C150A1F7289A82E0BE
S11301309DDF28988FEC97E00197F1F700C000004D
S113014088E2BADF88E0B8DF81E0B6DF8FE99FE0BC
S11301500197F1F700C0000086E0AEDF8CE0CF919C
S1130160ABCF48E050E060E070E08CE391E019C26E
S1130170CF93DF9348E050E060E070E08CE391E0DF
S113018000D2CCE3D1E088819981AA81BB81019618
S1130190A11DB11D88839983AA83BB83E2DF8D816E
S11301A080933901DF91CF9108958FEF87B983EE62
S11301B08AB98FEE84B918B81BB884E085B908955C
S11301C083EA84BD81E085BD17BC18BC08958AE02C
S11301D08093690083E08DBB0895882319F093EA26
S11301E094BD01C014BC88BD809340010895CF9391
S11301F0DF93CDB7DEB761970FB6F894DEBF0FBEBD
S1130200CDBF4AE0BE016F5F7F4F88D1CE0101961A
S113021057DF61960FB6F894DEBF0FBECDBFDF91F6
S1130220CF91089588EC80937C0010927B0086EE39
S113023080937A0080917A0084FFFCCF0895209106
S1130240780030917900ECE3F1E04681429FC001EF
S1130250439F900D11246AE070E04CD18781860F92
S11302600895CF93DF932FEF89E698E121508040E2
S11302709040E1F700C000007BDF97DFA1DFD2DF11
S1130280DEDF84E58CBDCCE3D1E08C81A6DF8D81FB
S113029087BD9DDF2FDF25DF80E091E011DF61E086
S11302A080E019DF8EE091E00BDF2FEF8DE399E41E
S11302B0215080409040E1F700C0000012DF8FE140
S11302C091E0FEDE61E080E006DF888199818FDFC6
S11302D061E085E000DF8C8190E089DF61E08AE005
S11302E0FADE8D8190E083DF2FEF8DE399E42150D6
S11302F080409040E1F700C00000DF91CF91F1CE43
S11303008EBD0DB407FEFDCF8EB50895CF93DF9358
S11303102A9822E02A95F1F700C080E0F1DFC82F87
S1130320D0E0DC2FCC2780E0EBDF32E03A95F1F728
S113033000C02A9A9E01282BC901DF91CF9108950C
S1130340CF93DF9382FF05C08EE291E0DF91CF91DE
S1130350B7CEEC0183E0D695C7958A95E1F7CE0137
S11303609F70969587959695879541DF8EE2A6DED8
S1130370C370DD2789E1282F2C9FC0012D9F900D8C
S1130380112435DF8FED9ADE83E4DF91CF9196CE91
S113039068DFA7DE7894BADF23E0969587952A95DF
S11303A0E1F79F708C37910510F0589801C0589A66
S11303B060E080E090DEAADFC3DF61E080E08BDEF6
S11303C03EDF90E014DF2FEF81EE94E02150804077
S11303D09040E1F700C00000DECF1F920F920FB6ED
S11303E00F9211242F933F934F935F936F937F93B7
S11303F08F939F93AF93BF93EF93FF9380913801B3
S113040090E001968170992780933801809138019A
S1130410882371F0809140018093390161E080E08C
S11304205ADE8EE74BDE61E085E055DE80E20DC0EA
S1130430809141018093390161E080E04CDE80E2EB
S11304403DDE61E085E047DE8EE738DE8ADEFF913F
S1130450EF91BF91AF919F918F917F916F915F9138
S11304604F913F912F910F900FBE0F901F901895B1
S11304701F920F920FB60F9211242F933F934F9315
S11304805F936F937F938F939F93AF93BF93EF93F8
S1130490FF934C9B08C080913901882369F08091B7
S11304A03901815007C0809139018F3F29F0809133
S11304B039018F5F8093390180913801882321F0BD
S11304C0809139018ADE05C08091390187BD80930E
S11304D04101FF91EF91BF91AF919F918F917F91D6
S11304E06F915F914F913F912F910F900FBE0F909D
S11304F01F901895AA1BBB1B51E107C0AA1FBB1F65
S1130500A617B70710F0A61BB70B881F991F5A959B
S1130510A9F780959095BC01CD010895BB274A3079
S113052031F4992322F4BDE2909581959F4F01C047
S1130530BB27FB015527AA27880F991FAA1FA417B9
S113054010F0A41B83955051B9F7A05DAA3308F0AD
S1130550A95DA193009779F7B111B1931192CB01E1
S113056000C0DC01FC01672F71917723E1F732971A
S113057004C07C916D9370836291AE17BF07C8F37A
S11305800895DC01CB01FC01F999FECF06C0F2BD50
S1130590E1BDF89A319600B40D9241505040B8F73D
S11305A00895DC01A40FB51F4150504040F0CB0129
S11305B0840F951F2E9105D041505040D8F70895CF
S11305C0262FF999FECF92BD81BDF89A019700B408
S11305D0021639F01FBA20BD0FB6F894FA9AF99AA8
S10B05E00FBE0895F894FFCF4B
S11305E820205265666C6F77206F76656E00452E05
S11305F85654302E504C203230313520763000504D
S11306086F773A2042636C3A20436F6E3A004E4F3C
S10B06182050524F424520001E
S9030000FC
